{
  "_format": "hh-sol-artifact-1",
  "contractName": "Lottery",
  "sourceName": "contracts/Lottery.sol",
  "abi": [
    {
      "inputs": [],
      "stateMutability": "nonpayable",
      "type": "constructor"
    },
    {
      "anonymous": false,
      "inputs": [
        {
          "indexed": false,
          "internalType": "address[]",
          "name": "winners",
          "type": "address[]"
        }
      ],
      "name": "LotteryEnded",
      "type": "event"
    },
    {
      "anonymous": false,
      "inputs": [],
      "name": "LotteryReset",
      "type": "event"
    },
    {
      "anonymous": false,
      "inputs": [
        {
          "indexed": false,
          "internalType": "address",
          "name": "player",
          "type": "address"
        }
      ],
      "name": "PlayerEntered",
      "type": "event"
    },
    {
      "inputs": [],
      "name": "endLottery",
      "outputs": [],
      "stateMutability": "nonpayable",
      "type": "function"
    },
    {
      "inputs": [],
      "name": "enter",
      "outputs": [],
      "stateMutability": "payable",
      "type": "function"
    },
    {
      "inputs": [],
      "name": "entryFee",
      "outputs": [
        {
          "internalType": "uint256",
          "name": "",
          "type": "uint256"
        }
      ],
      "stateMutability": "view",
      "type": "function"
    },
    {
      "inputs": [],
      "name": "getParticipants",
      "outputs": [
        {
          "internalType": "address[]",
          "name": "",
          "type": "address[]"
        }
      ],
      "stateMutability": "view",
      "type": "function"
    },
    {
      "inputs": [
        {
          "internalType": "address",
          "name": "_address",
          "type": "address"
        }
      ],
      "name": "isAlreadyParticipating",
      "outputs": [
        {
          "internalType": "bool",
          "name": "",
          "type": "bool"
        }
      ],
      "stateMutability": "view",
      "type": "function"
    },
    {
      "inputs": [
        {
          "internalType": "address",
          "name": "",
          "type": "address"
        }
      ],
      "name": "isParticipant",
      "outputs": [
        {
          "internalType": "bool",
          "name": "",
          "type": "bool"
        }
      ],
      "stateMutability": "view",
      "type": "function"
    },
    {
      "inputs": [],
      "name": "lotteryOpen",
      "outputs": [
        {
          "internalType": "bool",
          "name": "",
          "type": "bool"
        }
      ],
      "stateMutability": "view",
      "type": "function"
    },
    {
      "inputs": [],
      "name": "maxParticipants",
      "outputs": [
        {
          "internalType": "uint256",
          "name": "",
          "type": "uint256"
        }
      ],
      "stateMutability": "view",
      "type": "function"
    },
    {
      "inputs": [],
      "name": "minParticipants",
      "outputs": [
        {
          "internalType": "uint256",
          "name": "",
          "type": "uint256"
        }
      ],
      "stateMutability": "view",
      "type": "function"
    },
    {
      "inputs": [],
      "name": "owner",
      "outputs": [
        {
          "internalType": "address",
          "name": "",
          "type": "address"
        }
      ],
      "stateMutability": "view",
      "type": "function"
    },
    {
      "inputs": [],
      "name": "participantCount",
      "outputs": [
        {
          "internalType": "uint8",
          "name": "",
          "type": "uint8"
        }
      ],
      "stateMutability": "view",
      "type": "function"
    },
    {
      "inputs": [
        {
          "internalType": "uint256",
          "name": "",
          "type": "uint256"
        }
      ],
      "name": "participants",
      "outputs": [
        {
          "internalType": "address",
          "name": "",
          "type": "address"
        }
      ],
      "stateMutability": "view",
      "type": "function"
    },
    {
      "inputs": [],
      "name": "resetLottery",
      "outputs": [],
      "stateMutability": "nonpayable",
      "type": "function"
    },
    {
      "inputs": [],
      "name": "winnerCount",
      "outputs": [
        {
          "internalType": "uint256",
          "name": "",
          "type": "uint256"
        }
      ],
      "stateMutability": "view",
      "type": "function"
    },
    {
      "inputs": [
        {
          "internalType": "uint256",
          "name": "",
          "type": "uint256"
        }
      ],
      "name": "winners",
      "outputs": [
        {
          "internalType": "address",
          "name": "",
          "type": "address"
        }
      ],
      "stateMutability": "view",
      "type": "function"
    }
  ],
  "bytecode": "0x6080604052600a600155600560025560038055650da475abf0006007556000600860006101000a81548160ff021916908360ff1602179055506001600860016101000a81548160ff02191690831515021790555034801561005f57600080fd5b50336000806101000a81548173ffffffffffffffffffffffffffffffffffffffff021916908373ffffffffffffffffffffffffffffffffffffffff1602179055506117c5806100af6000396000f3fe6080604052600436106100e85760003560e01c8063929066f51161008a578063caa02e0811610059578063caa02e08146102e8578063d337616e14610313578063e97dcb621461032a578063ebbf591c14610334576100e8565b8063929066f514610218578063a2fb117514610255578063a54cd4f714610292578063c60c4ae9146102bd576100e8565b806335c1d349116100c657806335c1d3491461015a578063362f04c0146101975780635aa68ac0146101c25780638da5cb5b146101ed576100e8565b8063072ea61c146100ed5780631593a8c71461011857806324924bf71461012f575b600080fd5b3480156100f957600080fd5b50610102610371565b60405161010f9190610eeb565b60405180910390f35b34801561012457600080fd5b5061012d610377565b005b34801561013b57600080fd5b50610144610855565b6040516101519190610eeb565b60405180910390f35b34801561016657600080fd5b50610181600480360381019061017c9190610f37565b61085b565b60405161018e9190610fa5565b60405180910390f35b3480156101a357600080fd5b506101ac61089a565b6040516101b99190610fdc565b60405180910390f35b3480156101ce57600080fd5b506101d76108ad565b6040516101e491906110b5565b60405180910390f35b3480156101f957600080fd5b5061020261093b565b60405161020f9190610fa5565b60405180910390f35b34801561022457600080fd5b5061023f600480360381019061023a9190611103565b61095f565b60405161024c919061114b565b60405180910390f35b34801561026157600080fd5b5061027c60048036038101906102779190610f37565b61097f565b6040516102899190610fa5565b60405180910390f35b34801561029e57600080fd5b506102a76109be565b6040516102b49190610eeb565b60405180910390f35b3480156102c957600080fd5b506102d26109c4565b6040516102df919061114b565b60405180910390f35b3480156102f457600080fd5b506102fd6109d7565b60405161030a9190610eeb565b60405180910390f35b34801561031f57600080fd5b506103286109dd565b005b610332610b65565b005b34801561034057600080fd5b5061035b60048036038101906103569190611103565b610e3e565b604051610368919061114b565b60405180910390f35b60075481565b600860019054906101000a900460ff166103c6576040517f08c379a00000000000000000000000000000000000000000000000000000000081526004016103bd906111c3565b60405180910390fd5b600254600860009054906101000a900460ff1660ff16101561041d576040517f08c379a00000000000000000000000000000000000000000000000000000000081526004016104149061122f565b60405180910390fd5b60005b600354811015610619576000600860009054906101000a900460ff1660ff1642448460405160200161045493929190611270565b6040516020818303038152906040528051906020012060001c61047791906112dc565b905060056004828154811061048f5761048e61130d565b5b9060005260206000200160009054906101000a900473ffffffffffffffffffffffffffffffffffffffff169080600181540180825580915050600190039060005260206000200160009091909190916101000a81548173ffffffffffffffffffffffffffffffffffffffff021916908373ffffffffffffffffffffffffffffffffffffffff16021790555060046001600860009054906101000a900460ff16610538919061136b565b60ff168154811061054c5761054b61130d565b5b9060005260206000200160009054906101000a900473ffffffffffffffffffffffffffffffffffffffff166004828154811061058b5761058a61130d565b5b9060005260206000200160006101000a81548173ffffffffffffffffffffffffffffffffffffffff021916908373ffffffffffffffffffffffffffffffffffffffff1602179055506008600081819054906101000a900460ff16809291906105f2906113a0565b91906101000a81548160ff021916908360ff16021790555050508080600101915050610420565b506000479050600060028261062e91906113c9565b905060006064601e8461064191906113fa565b61064b91906113c9565b90506000606460148561065e91906113fa565b61066891906113c9565b9050600560008154811061067f5761067e61130d565b5b9060005260206000200160009054906101000a900473ffffffffffffffffffffffffffffffffffffffff1673ffffffffffffffffffffffffffffffffffffffff166108fc849081150290604051600060405180830381858888f193505050501580156106ef573d6000803e3d6000fd5b5060056001815481106107055761070461130d565b5b9060005260206000200160009054906101000a900473ffffffffffffffffffffffffffffffffffffffff1673ffffffffffffffffffffffffffffffffffffffff166108fc839081150290604051600060405180830381858888f19350505050158015610775573d6000803e3d6000fd5b50600560028154811061078b5761078a61130d565b5b9060005260206000200160009054906101000a900473ffffffffffffffffffffffffffffffffffffffff1673ffffffffffffffffffffffffffffffffffffffff166108fc829081150290604051600060405180830381858888f193505050501580156107fb573d6000803e3d6000fd5b506000600860016101000a81548160ff0219169083151502179055507f1364a66c10650b51f40fbdd70a9c9553915721688179be49b98ae5979b86183960056040516108479190611528565b60405180910390a150505050565b60015481565b6004818154811061086b57600080fd5b906000526020600020016000915054906101000a900473ffffffffffffffffffffffffffffffffffffffff1681565b600860009054906101000a900460ff1681565b6060600480548060200260200160405190810160405280929190818152602001828054801561093157602002820191906000526020600020905b8160009054906101000a900473ffffffffffffffffffffffffffffffffffffffff1673ffffffffffffffffffffffffffffffffffffffff16815260200190600101908083116108e7575b5050505050905090565b60008054906101000a900473ffffffffffffffffffffffffffffffffffffffff1681565b60066020528060005260406000206000915054906101000a900460ff1681565b6005818154811061098f57600080fd5b906000526020600020016000915054906101000a900473ffffffffffffffffffffffffffffffffffffffff1681565b60025481565b600860019054906101000a900460ff1681565b60035481565b60001515600860019054906101000a900460ff16151514610a33576040517f08c379a0000000000000000000000000000000000000000000000000000000008152600401610a2a90611596565b60405180910390fd5b60005b600154811015610ae35760006006600060048481548110610a5a57610a5961130d565b5b9060005260206000200160009054906101000a900473ffffffffffffffffffffffffffffffffffffffff1673ffffffffffffffffffffffffffffffffffffffff1673ffffffffffffffffffffffffffffffffffffffff16815260200190815260200160002060006101000a81548160ff0219169083151502179055508080600101915050610a36565b5060046000610af29190610e94565b6000600860006101000a81548160ff021916908360ff1602179055506001600860016101000a81548160ff02191690831515021790555060056000610b379190610e94565b7fc07cdc0437f4a5523d938e3a96f2e751ce4a8e8784c5ce2316c7f833ac26772060405160405180910390a1565b600860019054906101000a900460ff16610bb4576040517f08c379a0000000000000000000000000000000000000000000000000000000008152600401610bab90611602565b60405180910390fd5b6007543414610bf8576040517f08c379a0000000000000000000000000000000000000000000000000000000008152600401610bef9061166e565b60405180910390fd5b600154600860009054906101000a900460ff1660ff1610610c4e576040517f08c379a0000000000000000000000000000000000000000000000000000000008152600401610c45906116da565b60405180910390fd5b600660003373ffffffffffffffffffffffffffffffffffffffff1673ffffffffffffffffffffffffffffffffffffffff16815260200190815260200160002060009054906101000a900460ff1615610cdb576040517f08c379a0000000000000000000000000000000000000000000000000000000008152600401610cd290611746565b60405180910390fd5b6004339080600181540180825580915050600190039060005260206000200160009091909190916101000a81548173ffffffffffffffffffffffffffffffffffffffff021916908373ffffffffffffffffffffffffffffffffffffffff1602179055506008600081819054906101000a900460ff1680929190610d5d90611766565b91906101000a81548160ff021916908360ff160217905550506001600660003373ffffffffffffffffffffffffffffffffffffffff1673ffffffffffffffffffffffffffffffffffffffff16815260200190815260200160002060006101000a81548160ff021916908315150217905550600154600860009054906101000a900460ff1660ff1603610e05576000600860016101000a81548160ff0219169083151502179055505b7f4d999952f9aa655a216ee2df5968ca0e670e9582ddc96cfe7d8168114b8ca37f33604051610e349190610fa5565b60405180910390a1565b6000600660008373ffffffffffffffffffffffffffffffffffffffff1673ffffffffffffffffffffffffffffffffffffffff16815260200190815260200160002060009054906101000a900460ff169050919050565b5080546000825590600052602060002090810190610eb29190610eb5565b50565b5b80821115610ece576000816000905550600101610eb6565b5090565b6000819050919050565b610ee581610ed2565b82525050565b6000602082019050610f006000830184610edc565b92915050565b600080fd5b610f1481610ed2565b8114610f1f57600080fd5b50565b600081359050610f3181610f0b565b92915050565b600060208284031215610f4d57610f4c610f06565b5b6000610f5b84828501610f22565b91505092915050565b600073ffffffffffffffffffffffffffffffffffffffff82169050919050565b6000610f8f82610f64565b9050919050565b610f9f81610f84565b82525050565b6000602082019050610fba6000830184610f96565b92915050565b600060ff82169050919050565b610fd681610fc0565b82525050565b6000602082019050610ff16000830184610fcd565b92915050565b600081519050919050565b600082825260208201905092915050565b6000819050602082019050919050565b61102c81610f84565b82525050565b600061103e8383611023565b60208301905092915050565b6000602082019050919050565b600061106282610ff7565b61106c8185611002565b935061107783611013565b8060005b838110156110a857815161108f8882611032565b975061109a8361104a565b92505060018101905061107b565b5085935050505092915050565b600060208201905081810360008301526110cf8184611057565b905092915050565b6110e081610f84565b81146110eb57600080fd5b50565b6000813590506110fd816110d7565b92915050565b60006020828403121561111957611118610f06565b5b6000611127848285016110ee565b91505092915050565b60008115159050919050565b61114581611130565b82525050565b6000602082019050611160600083018461113c565b92915050565b600082825260208201905092915050565b7f546865206c6f747465727920697320616c726561647920636c6f736564000000600082015250565b60006111ad601d83611166565b91506111b882611177565b602082019050919050565b600060208201905081810360008301526111dc816111a0565b9050919050565b7f546865206c6f7474657279206973206e6f742066756c6c000000000000000000600082015250565b6000611219601783611166565b9150611224826111e3565b602082019050919050565b600060208201905081810360008301526112488161120c565b9050919050565b6000819050919050565b61126a61126582610ed2565b61124f565b82525050565b600061127c8286611259565b60208201915061128c8285611259565b60208201915061129c8284611259565b602082019150819050949350505050565b7f4e487b7100000000000000000000000000000000000000000000000000000000600052601260045260246000fd5b60006112e782610ed2565b91506112f283610ed2565b925082611302576113016112ad565b5b828206905092915050565b7f4e487b7100000000000000000000000000000000000000000000000000000000600052603260045260246000fd5b7f4e487b7100000000000000000000000000000000000000000000000000000000600052601160045260246000fd5b600061137682610fc0565b915061138183610fc0565b9250828203905060ff81111561139a5761139961133c565b5b92915050565b60006113ab82610fc0565b9150600082036113be576113bd61133c565b5b600182039050919050565b60006113d482610ed2565b91506113df83610ed2565b9250826113ef576113ee6112ad565b5b828204905092915050565b600061140582610ed2565b915061141083610ed2565b925082820261141e81610ed2565b915082820484148315176114355761143461133c565b5b5092915050565b600081549050919050565b60008190508160005260206000209050919050565b60008160001c9050919050565b600073ffffffffffffffffffffffffffffffffffffffff82169050919050565b600061149c6114978361145c565b611469565b9050919050565b60006114af8254611489565b9050919050565b6000600182019050919050565b60006114ce8261143c565b6114d88185611002565b93506114e383611447565b8060005b8381101561151b576114f8826114a3565b6115028882611032565b975061150d836114b6565b9250506001810190506114e7565b5085935050505092915050565b6000602082019050818103600083015261154281846114c3565b905092915050565b7f546865206c6f7474657279206973207374696c6c206f70656e00000000000000600082015250565b6000611580601983611166565b915061158b8261154a565b602082019050919050565b600060208201905081810360008301526115af81611573565b9050919050565b7f546865206c6f747465727920697320636c6f7365640000000000000000000000600082015250565b60006115ec601583611166565b91506115f7826115b6565b602082019050919050565b6000602082019050818103600083015261161b816115df565b9050919050565b7f54686520656e7472792066656520697320302e30303030313520657468657200600082015250565b6000611658601f83611166565b915061166382611622565b602082019050919050565b600060208201905081810360008301526116878161164b565b9050919050565b7f546865206c6f74746572792069732066756c6c00000000000000000000000000600082015250565b60006116c4601383611166565b91506116cf8261168e565b602082019050919050565b600060208201905081810360008301526116f3816116b7565b9050919050565b7f596f752061726520616c72656164792061207061727469636970616e74000000600082015250565b6000611730601d83611166565b915061173b826116fa565b602082019050919050565b6000602082019050818103600083015261175f81611723565b9050919050565b600061177182610fc0565b915060ff82036117845761178361133c565b5b60018201905091905056fea2646970667358221220fd912404f4f71281b46048a693b767f3fa02ad1db8c8e122178109fc7857f08064736f6c63430008180033",
  "linkReferences": {},
  "deployedLinkReferences": {}
}