{
  "_format": "hh-sol-artifact-1",
  "contractName": "Lottery",
  "sourceName": "contracts/Lottery.sol",
  "abi": [
    {
      "inputs": [],
      "stateMutability": "nonpayable",
      "type": "constructor"
    },
    {
      "anonymous": false,
      "inputs": [
        {
          "indexed": false,
          "internalType": "address[]",
          "name": "winners",
          "type": "address[]"
        }
      ],
      "name": "LotteryEnded",
      "type": "event"
    },
    {
      "anonymous": false,
      "inputs": [],
      "name": "LotteryReset",
      "type": "event"
    },
    {
      "anonymous": false,
      "inputs": [
        {
          "indexed": false,
          "internalType": "address",
          "name": "player",
          "type": "address"
        }
      ],
      "name": "PlayerEntered",
      "type": "event"
    },
    {
      "inputs": [],
      "name": "endLottery",
      "outputs": [],
      "stateMutability": "nonpayable",
      "type": "function"
    },
    {
      "inputs": [],
      "name": "enter",
      "outputs": [],
      "stateMutability": "payable",
      "type": "function"
    },
    {
      "inputs": [],
      "name": "entryFee",
      "outputs": [
        {
          "internalType": "uint256",
          "name": "",
          "type": "uint256"
        }
      ],
      "stateMutability": "view",
      "type": "function"
    },
    {
      "inputs": [],
      "name": "getParticipants",
      "outputs": [
        {
          "internalType": "address[]",
          "name": "",
          "type": "address[]"
        }
      ],
      "stateMutability": "view",
      "type": "function"
    },
    {
      "inputs": [],
      "name": "getWinners",
      "outputs": [
        {
          "internalType": "address[]",
          "name": "",
          "type": "address[]"
        }
      ],
      "stateMutability": "view",
      "type": "function"
    },
    {
      "inputs": [
        {
          "internalType": "address",
          "name": "_address",
          "type": "address"
        }
      ],
      "name": "isAddressWinner",
      "outputs": [
        {
          "internalType": "bool",
          "name": "",
          "type": "bool"
        }
      ],
      "stateMutability": "view",
      "type": "function"
    },
    {
      "inputs": [
        {
          "internalType": "address",
          "name": "_address",
          "type": "address"
        }
      ],
      "name": "isAlreadyParticipating",
      "outputs": [
        {
          "internalType": "bool",
          "name": "",
          "type": "bool"
        }
      ],
      "stateMutability": "view",
      "type": "function"
    },
    {
      "inputs": [
        {
          "internalType": "address",
          "name": "",
          "type": "address"
        }
      ],
      "name": "isParticipant",
      "outputs": [
        {
          "internalType": "bool",
          "name": "",
          "type": "bool"
        }
      ],
      "stateMutability": "view",
      "type": "function"
    },
    {
      "inputs": [
        {
          "internalType": "address",
          "name": "",
          "type": "address"
        }
      ],
      "name": "isWinner",
      "outputs": [
        {
          "internalType": "bool",
          "name": "",
          "type": "bool"
        }
      ],
      "stateMutability": "view",
      "type": "function"
    },
    {
      "inputs": [],
      "name": "lotteryOpen",
      "outputs": [
        {
          "internalType": "bool",
          "name": "",
          "type": "bool"
        }
      ],
      "stateMutability": "view",
      "type": "function"
    },
    {
      "inputs": [],
      "name": "maxParticipants",
      "outputs": [
        {
          "internalType": "uint256",
          "name": "",
          "type": "uint256"
        }
      ],
      "stateMutability": "view",
      "type": "function"
    },
    {
      "inputs": [],
      "name": "minParticipants",
      "outputs": [
        {
          "internalType": "uint256",
          "name": "",
          "type": "uint256"
        }
      ],
      "stateMutability": "view",
      "type": "function"
    },
    {
      "inputs": [],
      "name": "owner",
      "outputs": [
        {
          "internalType": "address",
          "name": "",
          "type": "address"
        }
      ],
      "stateMutability": "view",
      "type": "function"
    },
    {
      "inputs": [],
      "name": "participantCount",
      "outputs": [
        {
          "internalType": "uint8",
          "name": "",
          "type": "uint8"
        }
      ],
      "stateMutability": "view",
      "type": "function"
    },
    {
      "inputs": [
        {
          "internalType": "uint256",
          "name": "",
          "type": "uint256"
        }
      ],
      "name": "participants",
      "outputs": [
        {
          "internalType": "address",
          "name": "",
          "type": "address"
        }
      ],
      "stateMutability": "view",
      "type": "function"
    },
    {
      "inputs": [],
      "name": "resetLottery",
      "outputs": [],
      "stateMutability": "nonpayable",
      "type": "function"
    },
    {
      "inputs": [],
      "name": "winnerCount",
      "outputs": [
        {
          "internalType": "uint256",
          "name": "",
          "type": "uint256"
        }
      ],
      "stateMutability": "view",
      "type": "function"
    },
    {
      "inputs": [
        {
          "internalType": "uint256",
          "name": "",
          "type": "uint256"
        }
      ],
      "name": "winners",
      "outputs": [
        {
          "internalType": "address",
          "name": "",
          "type": "address"
        }
      ],
      "stateMutability": "view",
      "type": "function"
    }
  ],
  "bytecode": "0x6080604052600a600155600560025560038055650da475abf0006008556000600960006101000a81548160ff021916908360ff1602179055506001600960016101000a81548160ff02191690831515021790555034801561005f57600080fd5b50336000806101000a81548173ffffffffffffffffffffffffffffffffffffffff021916908373ffffffffffffffffffffffffffffffffffffffff160217905550611a22806100af6000396000f3fe6080604052600436106101095760003560e01c8063a2fb117511610095578063cab38ba811610064578063cab38ba814610371578063d337616e146103ae578063df15c37e146103c5578063e97dcb62146103f0578063ebbf591c146103fa57610109565b8063a2fb1175146102b3578063a54cd4f7146102f0578063c60c4ae91461031b578063caa02e081461034657610109565b8063362f04c0116100dc578063362f04c0146101b85780635aa68ac0146101e35780638da5cb5b1461020e578063929066f5146102395780639d9ca28d1461027657610109565b8063072ea61c1461010e5780631593a8c71461013957806324924bf71461015057806335c1d3491461017b575b600080fd5b34801561011a57600080fd5b50610123610437565b60405161013091906111b4565b60405180910390f35b34801561014557600080fd5b5061014e61043d565b005b34801561015c57600080fd5b506101656109b1565b60405161017291906111b4565b60405180910390f35b34801561018757600080fd5b506101a2600480360381019061019d9190611200565b6109b7565b6040516101af919061126e565b60405180910390f35b3480156101c457600080fd5b506101cd6109f6565b6040516101da91906112a5565b60405180910390f35b3480156101ef57600080fd5b506101f8610a09565b604051610205919061137e565b60405180910390f35b34801561021a57600080fd5b50610223610a97565b604051610230919061126e565b60405180910390f35b34801561024557600080fd5b50610260600480360381019061025b91906113cc565b610abb565b60405161026d9190611414565b60405180910390f35b34801561028257600080fd5b5061029d600480360381019061029891906113cc565b610adb565b6040516102aa9190611414565b60405180910390f35b3480156102bf57600080fd5b506102da60048036038101906102d59190611200565b610afb565b6040516102e7919061126e565b60405180910390f35b3480156102fc57600080fd5b50610305610b3a565b60405161031291906111b4565b60405180910390f35b34801561032757600080fd5b50610330610b40565b60405161033d9190611414565b60405180910390f35b34801561035257600080fd5b5061035b610b53565b60405161036891906111b4565b60405180910390f35b34801561037d57600080fd5b50610398600480360381019061039391906113cc565b610b59565b6040516103a59190611414565b60405180910390f35b3480156103ba57600080fd5b506103c3610baf565b005b3480156103d157600080fd5b506103da610da0565b6040516103e7919061137e565b60405180910390f35b6103f8610e2e565b005b34801561040657600080fd5b50610421600480360381019061041c91906113cc565b611107565b60405161042e9190611414565b60405180910390f35b60085481565b600960019054906101000a900460ff1661048c576040517f08c379a00000000000000000000000000000000000000000000000000000000081526004016104839061148c565b60405180910390fd5b600254600960009054906101000a900460ff1660ff1610156104e3576040517f08c379a00000000000000000000000000000000000000000000000000000000081526004016104da906114f8565b60405180910390fd5b60005b600354811015610775576000600960009054906101000a900460ff1660ff1642448460405160200161051a93929190611539565b6040516020818303038152906040528051906020012060001c61053d91906115a5565b9050600560048281548110610555576105546115d6565b5b9060005260206000200160009054906101000a900473ffffffffffffffffffffffffffffffffffffffff169080600181540180825580915050600190039060005260206000200160009091909190916101000a81548173ffffffffffffffffffffffffffffffffffffffff021916908373ffffffffffffffffffffffffffffffffffffffff160217905550600160076000600484815481106105fa576105f96115d6565b5b9060005260206000200160009054906101000a900473ffffffffffffffffffffffffffffffffffffffff1673ffffffffffffffffffffffffffffffffffffffff1673ffffffffffffffffffffffffffffffffffffffff16815260200190815260200160002060006101000a81548160ff02191690831515021790555060046001600960009054906101000a900460ff166106949190611634565b60ff16815481106106a8576106a76115d6565b5b9060005260206000200160009054906101000a900473ffffffffffffffffffffffffffffffffffffffff16600482815481106106e7576106e66115d6565b5b9060005260206000200160006101000a81548173ffffffffffffffffffffffffffffffffffffffff021916908373ffffffffffffffffffffffffffffffffffffffff1602179055506009600081819054906101000a900460ff168092919061074e90611669565b91906101000a81548160ff021916908360ff160217905550505080806001019150506104e6565b506000479050600060028261078a9190611692565b905060006064601e8461079d91906116c3565b6107a79190611692565b9050600060646014856107ba91906116c3565b6107c49190611692565b905060056000815481106107db576107da6115d6565b5b9060005260206000200160009054906101000a900473ffffffffffffffffffffffffffffffffffffffff1673ffffffffffffffffffffffffffffffffffffffff166108fc849081150290604051600060405180830381858888f1935050505015801561084b573d6000803e3d6000fd5b506005600181548110610861576108606115d6565b5b9060005260206000200160009054906101000a900473ffffffffffffffffffffffffffffffffffffffff1673ffffffffffffffffffffffffffffffffffffffff166108fc839081150290604051600060405180830381858888f193505050501580156108d1573d6000803e3d6000fd5b5060056002815481106108e7576108e66115d6565b5b9060005260206000200160009054906101000a900473ffffffffffffffffffffffffffffffffffffffff1673ffffffffffffffffffffffffffffffffffffffff166108fc829081150290604051600060405180830381858888f19350505050158015610957573d6000803e3d6000fd5b506000600960016101000a81548160ff0219169083151502179055507f1364a66c10650b51f40fbdd70a9c9553915721688179be49b98ae5979b86183960056040516109a391906117f1565b60405180910390a150505050565b60015481565b600481815481106109c757600080fd5b906000526020600020016000915054906101000a900473ffffffffffffffffffffffffffffffffffffffff1681565b600960009054906101000a900460ff1681565b60606004805480602002602001604051908101604052809291908181526020018280548015610a8d57602002820191906000526020600020905b8160009054906101000a900473ffffffffffffffffffffffffffffffffffffffff1673ffffffffffffffffffffffffffffffffffffffff1681526020019060010190808311610a43575b5050505050905090565b60008054906101000a900473ffffffffffffffffffffffffffffffffffffffff1681565b60066020528060005260406000206000915054906101000a900460ff1681565b60076020528060005260406000206000915054906101000a900460ff1681565b60058181548110610b0b57600080fd5b906000526020600020016000915054906101000a900473ffffffffffffffffffffffffffffffffffffffff1681565b60025481565b600960019054906101000a900460ff1681565b60035481565b6000600760008373ffffffffffffffffffffffffffffffffffffffff1673ffffffffffffffffffffffffffffffffffffffff16815260200190815260200160002060009054906101000a900460ff169050919050565b60005b600154811015610c5f5760006006600060048481548110610bd657610bd56115d6565b5b9060005260206000200160009054906101000a900473ffffffffffffffffffffffffffffffffffffffff1673ffffffffffffffffffffffffffffffffffffffff1673ffffffffffffffffffffffffffffffffffffffff16815260200190815260200160002060006101000a81548160ff0219169083151502179055508080600101915050610bb2565b5060005b600354811015610d105760006007600060058481548110610c8757610c866115d6565b5b9060005260206000200160009054906101000a900473ffffffffffffffffffffffffffffffffffffffff1673ffffffffffffffffffffffffffffffffffffffff1673ffffffffffffffffffffffffffffffffffffffff16815260200190815260200160002060006101000a81548160ff0219169083151502179055508080600101915050610c63565b5060046000610d1f919061115d565b60056000610d2d919061115d565b6000600960006101000a81548160ff021916908360ff1602179055506001600960016101000a81548160ff02191690831515021790555060056000610d72919061115d565b7fc07cdc0437f4a5523d938e3a96f2e751ce4a8e8784c5ce2316c7f833ac26772060405160405180910390a1565b60606005805480602002602001604051908101604052809291908181526020018280548015610e2457602002820191906000526020600020905b8160009054906101000a900473ffffffffffffffffffffffffffffffffffffffff1673ffffffffffffffffffffffffffffffffffffffff1681526020019060010190808311610dda575b5050505050905090565b600960019054906101000a900460ff16610e7d576040517f08c379a0000000000000000000000000000000000000000000000000000000008152600401610e749061185f565b60405180910390fd5b6008543414610ec1576040517f08c379a0000000000000000000000000000000000000000000000000000000008152600401610eb8906118cb565b60405180910390fd5b600154600960009054906101000a900460ff1660ff1610610f17576040517f08c379a0000000000000000000000000000000000000000000000000000000008152600401610f0e90611937565b60405180910390fd5b600660003373ffffffffffffffffffffffffffffffffffffffff1673ffffffffffffffffffffffffffffffffffffffff16815260200190815260200160002060009054906101000a900460ff1615610fa4576040517f08c379a0000000000000000000000000000000000000000000000000000000008152600401610f9b906119a3565b60405180910390fd5b6004339080600181540180825580915050600190039060005260206000200160009091909190916101000a81548173ffffffffffffffffffffffffffffffffffffffff021916908373ffffffffffffffffffffffffffffffffffffffff1602179055506009600081819054906101000a900460ff1680929190611026906119c3565b91906101000a81548160ff021916908360ff160217905550506001600660003373ffffffffffffffffffffffffffffffffffffffff1673ffffffffffffffffffffffffffffffffffffffff16815260200190815260200160002060006101000a81548160ff021916908315150217905550600154600960009054906101000a900460ff1660ff16036110ce576000600960016101000a81548160ff0219169083151502179055505b7f4d999952f9aa655a216ee2df5968ca0e670e9582ddc96cfe7d8168114b8ca37f336040516110fd919061126e565b60405180910390a1565b6000600660008373ffffffffffffffffffffffffffffffffffffffff1673ffffffffffffffffffffffffffffffffffffffff16815260200190815260200160002060009054906101000a900460ff169050919050565b508054600082559060005260206000209081019061117b919061117e565b50565b5b8082111561119757600081600090555060010161117f565b5090565b6000819050919050565b6111ae8161119b565b82525050565b60006020820190506111c960008301846111a5565b92915050565b600080fd5b6111dd8161119b565b81146111e857600080fd5b50565b6000813590506111fa816111d4565b92915050565b600060208284031215611216576112156111cf565b5b6000611224848285016111eb565b91505092915050565b600073ffffffffffffffffffffffffffffffffffffffff82169050919050565b60006112588261122d565b9050919050565b6112688161124d565b82525050565b6000602082019050611283600083018461125f565b92915050565b600060ff82169050919050565b61129f81611289565b82525050565b60006020820190506112ba6000830184611296565b92915050565b600081519050919050565b600082825260208201905092915050565b6000819050602082019050919050565b6112f58161124d565b82525050565b600061130783836112ec565b60208301905092915050565b6000602082019050919050565b600061132b826112c0565b61133581856112cb565b9350611340836112dc565b8060005b8381101561137157815161135888826112fb565b975061136383611313565b925050600181019050611344565b5085935050505092915050565b600060208201905081810360008301526113988184611320565b905092915050565b6113a98161124d565b81146113b457600080fd5b50565b6000813590506113c6816113a0565b92915050565b6000602082840312156113e2576113e16111cf565b5b60006113f0848285016113b7565b91505092915050565b60008115159050919050565b61140e816113f9565b82525050565b60006020820190506114296000830184611405565b92915050565b600082825260208201905092915050565b7f546865206c6f747465727920697320616c726561647920636c6f736564000000600082015250565b6000611476601d8361142f565b915061148182611440565b602082019050919050565b600060208201905081810360008301526114a581611469565b9050919050565b7f546865206c6f7474657279206973206e6f742066756c6c000000000000000000600082015250565b60006114e260178361142f565b91506114ed826114ac565b602082019050919050565b60006020820190508181036000830152611511816114d5565b9050919050565b6000819050919050565b61153361152e8261119b565b611518565b82525050565b60006115458286611522565b6020820191506115558285611522565b6020820191506115658284611522565b602082019150819050949350505050565b7f4e487b7100000000000000000000000000000000000000000000000000000000600052601260045260246000fd5b60006115b08261119b565b91506115bb8361119b565b9250826115cb576115ca611576565b5b828206905092915050565b7f4e487b7100000000000000000000000000000000000000000000000000000000600052603260045260246000fd5b7f4e487b7100000000000000000000000000000000000000000000000000000000600052601160045260246000fd5b600061163f82611289565b915061164a83611289565b9250828203905060ff81111561166357611662611605565b5b92915050565b600061167482611289565b91506000820361168757611686611605565b5b600182039050919050565b600061169d8261119b565b91506116a88361119b565b9250826116b8576116b7611576565b5b828204905092915050565b60006116ce8261119b565b91506116d98361119b565b92508282026116e78161119b565b915082820484148315176116fe576116fd611605565b5b5092915050565b600081549050919050565b60008190508160005260206000209050919050565b60008160001c9050919050565b600073ffffffffffffffffffffffffffffffffffffffff82169050919050565b600061176561176083611725565b611732565b9050919050565b60006117788254611752565b9050919050565b6000600182019050919050565b600061179782611705565b6117a181856112cb565b93506117ac83611710565b8060005b838110156117e4576117c18261176c565b6117cb88826112fb565b97506117d68361177f565b9250506001810190506117b0565b5085935050505092915050565b6000602082019050818103600083015261180b818461178c565b905092915050565b7f546865206c6f747465727920697320636c6f7365640000000000000000000000600082015250565b600061184960158361142f565b915061185482611813565b602082019050919050565b600060208201905081810360008301526118788161183c565b9050919050565b7f54686520656e7472792066656520697320302e30303030313520657468657200600082015250565b60006118b5601f8361142f565b91506118c08261187f565b602082019050919050565b600060208201905081810360008301526118e4816118a8565b9050919050565b7f546865206c6f74746572792069732066756c6c00000000000000000000000000600082015250565b600061192160138361142f565b915061192c826118eb565b602082019050919050565b6000602082019050818103600083015261195081611914565b9050919050565b7f596f752061726520616c72656164792061207061727469636970616e74000000600082015250565b600061198d601d8361142f565b915061199882611957565b602082019050919050565b600060208201905081810360008301526119bc81611980565b9050919050565b60006119ce82611289565b915060ff82036119e1576119e0611605565b5b60018201905091905056fea264697066735822122064959d860aa5366091c177fb947c7e5c64b4847d32ccf797eb4bca194c1ceff864736f6c63430008180033",
  "linkReferences": {},
  "deployedLinkReferences": {}
}