{
  "_format": "hh-sol-artifact-1",
  "contractName": "Lottery",
  "sourceName": "contracts/Lottery.sol",
  "abi": [
    {
      "inputs": [],
      "stateMutability": "nonpayable",
      "type": "constructor"
    },
    {
      "anonymous": false,
      "inputs": [
        {
          "indexed": false,
          "internalType": "address[]",
          "name": "winners",
          "type": "address[]"
        }
      ],
      "name": "LotteryEnded",
      "type": "event"
    },
    {
      "anonymous": false,
      "inputs": [],
      "name": "LotteryReset",
      "type": "event"
    },
    {
      "anonymous": false,
      "inputs": [
        {
          "indexed": false,
          "internalType": "address",
          "name": "player",
          "type": "address"
        }
      ],
      "name": "PlayerEntered",
      "type": "event"
    },
    {
      "inputs": [
        {
          "internalType": "address",
          "name": "",
          "type": "address"
        }
      ],
      "name": "balances",
      "outputs": [
        {
          "internalType": "uint256",
          "name": "",
          "type": "uint256"
        }
      ],
      "stateMutability": "view",
      "type": "function"
    },
    {
      "inputs": [],
      "name": "endLottery",
      "outputs": [],
      "stateMutability": "nonpayable",
      "type": "function"
    },
    {
      "inputs": [],
      "name": "enter",
      "outputs": [],
      "stateMutability": "payable",
      "type": "function"
    },
    {
      "inputs": [],
      "name": "entryFee",
      "outputs": [
        {
          "internalType": "uint256",
          "name": "",
          "type": "uint256"
        }
      ],
      "stateMutability": "view",
      "type": "function"
    },
    {
      "inputs": [],
      "name": "getParticipants",
      "outputs": [
        {
          "internalType": "address[]",
          "name": "",
          "type": "address[]"
        }
      ],
      "stateMutability": "view",
      "type": "function"
    },
    {
      "inputs": [],
      "name": "getPrize",
      "outputs": [
        {
          "internalType": "uint256",
          "name": "",
          "type": "uint256"
        }
      ],
      "stateMutability": "view",
      "type": "function"
    },
    {
      "inputs": [],
      "name": "getWinners",
      "outputs": [
        {
          "internalType": "address[]",
          "name": "",
          "type": "address[]"
        }
      ],
      "stateMutability": "view",
      "type": "function"
    },
    {
      "inputs": [
        {
          "internalType": "address",
          "name": "_address",
          "type": "address"
        }
      ],
      "name": "isAddressWinner",
      "outputs": [
        {
          "internalType": "bool",
          "name": "",
          "type": "bool"
        }
      ],
      "stateMutability": "view",
      "type": "function"
    },
    {
      "inputs": [
        {
          "internalType": "address",
          "name": "_address",
          "type": "address"
        }
      ],
      "name": "isAlreadyParticipating",
      "outputs": [
        {
          "internalType": "bool",
          "name": "",
          "type": "bool"
        }
      ],
      "stateMutability": "view",
      "type": "function"
    },
    {
      "inputs": [
        {
          "internalType": "address",
          "name": "",
          "type": "address"
        }
      ],
      "name": "isParticipant",
      "outputs": [
        {
          "internalType": "bool",
          "name": "",
          "type": "bool"
        }
      ],
      "stateMutability": "view",
      "type": "function"
    },
    {
      "inputs": [
        {
          "internalType": "address",
          "name": "",
          "type": "address"
        }
      ],
      "name": "isWinner",
      "outputs": [
        {
          "internalType": "bool",
          "name": "",
          "type": "bool"
        }
      ],
      "stateMutability": "view",
      "type": "function"
    },
    {
      "inputs": [],
      "name": "lotteryOpen",
      "outputs": [
        {
          "internalType": "bool",
          "name": "",
          "type": "bool"
        }
      ],
      "stateMutability": "view",
      "type": "function"
    },
    {
      "inputs": [],
      "name": "maxParticipants",
      "outputs": [
        {
          "internalType": "uint256",
          "name": "",
          "type": "uint256"
        }
      ],
      "stateMutability": "view",
      "type": "function"
    },
    {
      "inputs": [],
      "name": "minParticipants",
      "outputs": [
        {
          "internalType": "uint256",
          "name": "",
          "type": "uint256"
        }
      ],
      "stateMutability": "view",
      "type": "function"
    },
    {
      "inputs": [],
      "name": "owner",
      "outputs": [
        {
          "internalType": "address",
          "name": "",
          "type": "address"
        }
      ],
      "stateMutability": "view",
      "type": "function"
    },
    {
      "inputs": [],
      "name": "participantCount",
      "outputs": [
        {
          "internalType": "uint8",
          "name": "",
          "type": "uint8"
        }
      ],
      "stateMutability": "view",
      "type": "function"
    },
    {
      "inputs": [
        {
          "internalType": "uint256",
          "name": "",
          "type": "uint256"
        }
      ],
      "name": "participants",
      "outputs": [
        {
          "internalType": "address",
          "name": "",
          "type": "address"
        }
      ],
      "stateMutability": "view",
      "type": "function"
    },
    {
      "inputs": [],
      "name": "resetLottery",
      "outputs": [],
      "stateMutability": "nonpayable",
      "type": "function"
    },
    {
      "inputs": [],
      "name": "totalPayout",
      "outputs": [
        {
          "internalType": "uint256",
          "name": "",
          "type": "uint256"
        }
      ],
      "stateMutability": "view",
      "type": "function"
    },
    {
      "inputs": [],
      "name": "transferPrize",
      "outputs": [],
      "stateMutability": "nonpayable",
      "type": "function"
    },
    {
      "inputs": [],
      "name": "winnerCount",
      "outputs": [
        {
          "internalType": "uint256",
          "name": "",
          "type": "uint256"
        }
      ],
      "stateMutability": "view",
      "type": "function"
    },
    {
      "inputs": [
        {
          "internalType": "uint256",
          "name": "",
          "type": "uint256"
        }
      ],
      "name": "winners",
      "outputs": [
        {
          "internalType": "address",
          "name": "",
          "type": "address"
        }
      ],
      "stateMutability": "view",
      "type": "function"
    }
  ],
  "bytecode": "0x6080604052600a60015560056002556002600355650da475abf0006008556000600960006101000a81548160ff021916908360ff1602179055506001600960016101000a81548160ff0219169083151502179055506000600a5534801561006557600080fd5b50336000806101000a81548173ffffffffffffffffffffffffffffffffffffffff021916908373ffffffffffffffffffffffffffffffffffffffff16021790555061202d806100b56000396000f3fe6080604052600436106101355760003560e01c8063a2fb1175116100ab578063cab38ba81161006f578063cab38ba814610430578063d337616e1461046d578063df15c37e14610484578063e97dcb62146104af578063ea8c50c6146104b9578063ebbf591c146104d057610135565b8063a2fb117514610347578063a54cd4f714610384578063c34f6b0d146103af578063c60c4ae9146103da578063caa02e081461040557610135565b8063362f04c0116100fd578063362f04c014610221578063454f7b8f1461024c5780635aa68ac0146102775780638da5cb5b146102a2578063929066f5146102cd5780639d9ca28d1461030a57610135565b8063072ea61c1461013a5780631593a8c71461016557806324924bf71461017c57806327e235e3146101a757806335c1d349146101e4575b600080fd5b34801561014657600080fd5b5061014f61050d565b60405161015c919061165f565b60405180910390f35b34801561017157600080fd5b5061017a610513565b005b34801561018857600080fd5b50610191610ae4565b60405161019e919061165f565b60405180910390f35b3480156101b357600080fd5b506101ce60048036038101906101c991906116dd565b610aea565b6040516101db919061165f565b60405180910390f35b3480156101f057600080fd5b5061020b60048036038101906102069190611736565b610b02565b6040516102189190611772565b60405180910390f35b34801561022d57600080fd5b50610236610b41565b60405161024391906117a9565b60405180910390f35b34801561025857600080fd5b50610261610b54565b60405161026e919061165f565b60405180910390f35b34801561028357600080fd5b5061028c610b5a565b6040516102999190611882565b60405180910390f35b3480156102ae57600080fd5b506102b7610be8565b6040516102c49190611772565b60405180910390f35b3480156102d957600080fd5b506102f460048036038101906102ef91906116dd565b610c0c565b60405161030191906118bf565b60405180910390f35b34801561031657600080fd5b50610331600480360381019061032c91906116dd565b610c2c565b60405161033e91906118bf565b60405180910390f35b34801561035357600080fd5b5061036e60048036038101906103699190611736565b610c4c565b60405161037b9190611772565b60405180910390f35b34801561039057600080fd5b50610399610c8b565b6040516103a6919061165f565b60405180910390f35b3480156103bb57600080fd5b506103c4610c91565b6040516103d1919061165f565b60405180910390f35b3480156103e657600080fd5b506103ef610cd8565b6040516103fc91906118bf565b60405180910390f35b34801561041157600080fd5b5061041a610ceb565b604051610427919061165f565b60405180910390f35b34801561043c57600080fd5b50610457600480360381019061045291906116dd565b610cf1565b60405161046491906118bf565b60405180910390f35b34801561047957600080fd5b50610482610d47565b005b34801561049057600080fd5b50610499611070565b6040516104a69190611882565b60405180910390f35b6104b76110fe565b005b3480156104c557600080fd5b506104ce6113d7565b005b3480156104dc57600080fd5b506104f760048036038101906104f291906116dd565b6115b2565b60405161050491906118bf565b60405180910390f35b60085481565b600960019054906101000a900460ff16610562576040517f08c379a000000000000000000000000000000000000000000000000000000000815260040161055990611937565b60405180910390fd5b600254600960009054906101000a900460ff1660ff1610156105b9576040517f08c379a00000000000000000000000000000000000000000000000000000000081526004016105b0906119a3565b60405180910390fd5b60005b60035481101561091b576000600960009054906101000a900460ff1660ff164244846040516020016105f0939291906119e4565b6040516020818303038152906040528051906020012060001c6106139190611a50565b905060056004828154811061062b5761062a611a81565b5b9060005260206000200160009054906101000a900473ffffffffffffffffffffffffffffffffffffffff169080600181540180825580915050600190039060005260206000200160009091909190916101000a81548173ffffffffffffffffffffffffffffffffffffffff021916908373ffffffffffffffffffffffffffffffffffffffff160217905550600160076000600484815481106106d0576106cf611a81565b5b9060005260206000200160009054906101000a900473ffffffffffffffffffffffffffffffffffffffff1673ffffffffffffffffffffffffffffffffffffffff1673ffffffffffffffffffffffffffffffffffffffff16815260200190815260200160002060006101000a81548160ff0219169083151502179055506000600660006004848154811061076657610765611a81565b5b9060005260206000200160009054906101000a900473ffffffffffffffffffffffffffffffffffffffff1673ffffffffffffffffffffffffffffffffffffffff1673ffffffffffffffffffffffffffffffffffffffff16815260200190815260200160002060006101000a81548160ff021916908315150217905550600460016004805490506107f69190611adf565b8154811061080757610806611a81565b5b9060005260206000200160009054906101000a900473ffffffffffffffffffffffffffffffffffffffff166004828154811061084657610845611a81565b5b9060005260206000200160006101000a81548173ffffffffffffffffffffffffffffffffffffffff021916908373ffffffffffffffffffffffffffffffffffffffff1602179055506009600081819054906101000a900460ff16809291906108ad90611b13565b91906101000a81548160ff021916908360ff1602179055505060048054806108d8576108d7611b3c565b5b6001900381819060005260206000200160006101000a81549073ffffffffffffffffffffffffffffffffffffffff021916905590555080806001019150506105bc565b506000479050600060646050836109329190611b6b565b61093c9190611bad565b90506000606460148461094f9190611b6b565b6109599190611bad565b905081600b6000600560008154811061097557610974611a81565b5b9060005260206000200160009054906101000a900473ffffffffffffffffffffffffffffffffffffffff1673ffffffffffffffffffffffffffffffffffffffff1673ffffffffffffffffffffffffffffffffffffffff16815260200190815260200160002060008282546109e99190611bde565b9250508190555080600b60006005600181548110610a0a57610a09611a81565b5b9060005260206000200160009054906101000a900473ffffffffffffffffffffffffffffffffffffffff1673ffffffffffffffffffffffffffffffffffffffff1673ffffffffffffffffffffffffffffffffffffffff1681526020019081526020016000206000828254610a7e9190611bde565b925050819055506000600960016101000a81548160ff02191690831515021790555082600a819055507f1364a66c10650b51f40fbdd70a9c9553915721688179be49b98ae5979b8618396005604051610ad79190611cfe565b60405180910390a1505050565b60015481565b600b6020528060005260406000206000915090505481565b60048181548110610b1257600080fd5b906000526020600020016000915054906101000a900473ffffffffffffffffffffffffffffffffffffffff1681565b600960009054906101000a900460ff1681565b600a5481565b60606004805480602002602001604051908101604052809291908181526020018280548015610bde57602002820191906000526020600020905b8160009054906101000a900473ffffffffffffffffffffffffffffffffffffffff1673ffffffffffffffffffffffffffffffffffffffff1681526020019060010190808311610b94575b5050505050905090565b60008054906101000a900473ffffffffffffffffffffffffffffffffffffffff1681565b60066020528060005260406000206000915054906101000a900460ff1681565b60076020528060005260406000206000915054906101000a900460ff1681565b60058181548110610c5c57600080fd5b906000526020600020016000915054906101000a900473ffffffffffffffffffffffffffffffffffffffff1681565b60025481565b6000600b60003373ffffffffffffffffffffffffffffffffffffffff1673ffffffffffffffffffffffffffffffffffffffff16815260200190815260200160002054905090565b600960019054906101000a900460ff1681565b60035481565b6000600760008373ffffffffffffffffffffffffffffffffffffffff1673ffffffffffffffffffffffffffffffffffffffff16815260200190815260200160002060009054906101000a900460ff169050919050565b60005b600960009054906101000a900460ff1660ff16811015610e075760006006600060048481548110610d7e57610d7d611a81565b5b9060005260206000200160009054906101000a900473ffffffffffffffffffffffffffffffffffffffff1673ffffffffffffffffffffffffffffffffffffffff1673ffffffffffffffffffffffffffffffffffffffff16815260200190815260200160002060006101000a81548160ff0219169083151502179055508080600101915050610d4a565b50600960019054906101000a900460ff16610fe75760005b600354811015610fe55760006007600060058481548110610e4357610e42611a81565b5b9060005260206000200160009054906101000a900473ffffffffffffffffffffffffffffffffffffffff1673ffffffffffffffffffffffffffffffffffffffff1673ffffffffffffffffffffffffffffffffffffffff16815260200190815260200160002060006101000a81548160ff02191690831515021790555060006006600060058481548110610ed957610ed8611a81565b5b9060005260206000200160009054906101000a900473ffffffffffffffffffffffffffffffffffffffff1673ffffffffffffffffffffffffffffffffffffffff1673ffffffffffffffffffffffffffffffffffffffff16815260200190815260200160002060006101000a81548160ff0219169083151502179055506000600b600060058481548110610f6f57610f6e611a81565b5b9060005260206000200160009054906101000a900473ffffffffffffffffffffffffffffffffffffffff1673ffffffffffffffffffffffffffffffffffffffff1673ffffffffffffffffffffffffffffffffffffffff168152602001908152602001600020819055508080600101915050610e1f565b505b60046000610ff59190611608565b600560006110039190611608565b6000600960006101000a81548160ff021916908360ff1602179055506001600960016101000a81548160ff0219169083151502179055506000600a819055507fc07cdc0437f4a5523d938e3a96f2e751ce4a8e8784c5ce2316c7f833ac26772060405160405180910390a1565b606060058054806020026020016040519081016040528092919081815260200182805480156110f457602002820191906000526020600020905b8160009054906101000a900473ffffffffffffffffffffffffffffffffffffffff1673ffffffffffffffffffffffffffffffffffffffff16815260200190600101908083116110aa575b5050505050905090565b600960019054906101000a900460ff1661114d576040517f08c379a000000000000000000000000000000000000000000000000000000000815260040161114490611d6c565b60405180910390fd5b6008543414611191576040517f08c379a000000000000000000000000000000000000000000000000000000000815260040161118890611dd8565b60405180910390fd5b600154600960009054906101000a900460ff1660ff16106111e7576040517f08c379a00000000000000000000000000000000000000000000000000000000081526004016111de90611e44565b60405180910390fd5b600660003373ffffffffffffffffffffffffffffffffffffffff1673ffffffffffffffffffffffffffffffffffffffff16815260200190815260200160002060009054906101000a900460ff1615611274576040517f08c379a000000000000000000000000000000000000000000000000000000000815260040161126b90611eb0565b60405180910390fd5b6004339080600181540180825580915050600190039060005260206000200160009091909190916101000a81548173ffffffffffffffffffffffffffffffffffffffff021916908373ffffffffffffffffffffffffffffffffffffffff1602179055506009600081819054906101000a900460ff16809291906112f690611ed0565b91906101000a81548160ff021916908360ff160217905550506001600660003373ffffffffffffffffffffffffffffffffffffffff1673ffffffffffffffffffffffffffffffffffffffff16815260200190815260200160002060006101000a81548160ff021916908315150217905550600154600960009054906101000a900460ff1660ff160361139e576000600960016101000a81548160ff0219169083151502179055505b7f4d999952f9aa655a216ee2df5968ca0e670e9582ddc96cfe7d8168114b8ca37f336040516113cd9190611772565b60405180910390a1565b600760003373ffffffffffffffffffffffffffffffffffffffff1673ffffffffffffffffffffffffffffffffffffffff16815260200190815260200160002060009054906101000a900460ff16611463576040517f08c379a000000000000000000000000000000000000000000000000000000000815260040161145a90611f45565b60405180910390fd5b6000600b60003373ffffffffffffffffffffffffffffffffffffffff1673ffffffffffffffffffffffffffffffffffffffff16815260200190815260200160002054116114e5576040517f08c379a00000000000000000000000000000000000000000000000000000000081526004016114dc90611fd7565b60405180910390fd5b3373ffffffffffffffffffffffffffffffffffffffff166108fc600b60003373ffffffffffffffffffffffffffffffffffffffff1673ffffffffffffffffffffffffffffffffffffffff168152602001908152602001600020549081150290604051600060405180830381858888f1935050505015801561156a573d6000803e3d6000fd5b506000600b60003373ffffffffffffffffffffffffffffffffffffffff1673ffffffffffffffffffffffffffffffffffffffff16815260200190815260200160002081905550565b6000600660008373ffffffffffffffffffffffffffffffffffffffff1673ffffffffffffffffffffffffffffffffffffffff16815260200190815260200160002060009054906101000a900460ff169050919050565b50805460008255906000526020600020908101906116269190611629565b50565b5b8082111561164257600081600090555060010161162a565b5090565b6000819050919050565b61165981611646565b82525050565b60006020820190506116746000830184611650565b92915050565b600080fd5b600073ffffffffffffffffffffffffffffffffffffffff82169050919050565b60006116aa8261167f565b9050919050565b6116ba8161169f565b81146116c557600080fd5b50565b6000813590506116d7816116b1565b92915050565b6000602082840312156116f3576116f261167a565b5b6000611701848285016116c8565b91505092915050565b61171381611646565b811461171e57600080fd5b50565b6000813590506117308161170a565b92915050565b60006020828403121561174c5761174b61167a565b5b600061175a84828501611721565b91505092915050565b61176c8161169f565b82525050565b60006020820190506117876000830184611763565b92915050565b600060ff82169050919050565b6117a38161178d565b82525050565b60006020820190506117be600083018461179a565b92915050565b600081519050919050565b600082825260208201905092915050565b6000819050602082019050919050565b6117f98161169f565b82525050565b600061180b83836117f0565b60208301905092915050565b6000602082019050919050565b600061182f826117c4565b61183981856117cf565b9350611844836117e0565b8060005b8381101561187557815161185c88826117ff565b975061186783611817565b925050600181019050611848565b5085935050505092915050565b6000602082019050818103600083015261189c8184611824565b905092915050565b60008115159050919050565b6118b9816118a4565b82525050565b60006020820190506118d460008301846118b0565b92915050565b600082825260208201905092915050565b7f546865206c6f747465727920697320616c726561647920636c6f736564000000600082015250565b6000611921601d836118da565b915061192c826118eb565b602082019050919050565b6000602082019050818103600083015261195081611914565b9050919050565b7f546865206c6f7474657279206973206e6f742066756c6c000000000000000000600082015250565b600061198d6017836118da565b915061199882611957565b602082019050919050565b600060208201905081810360008301526119bc81611980565b9050919050565b6000819050919050565b6119de6119d982611646565b6119c3565b82525050565b60006119f082866119cd565b602082019150611a0082856119cd565b602082019150611a1082846119cd565b602082019150819050949350505050565b7f4e487b7100000000000000000000000000000000000000000000000000000000600052601260045260246000fd5b6000611a5b82611646565b9150611a6683611646565b925082611a7657611a75611a21565b5b828206905092915050565b7f4e487b7100000000000000000000000000000000000000000000000000000000600052603260045260246000fd5b7f4e487b7100000000000000000000000000000000000000000000000000000000600052601160045260246000fd5b6000611aea82611646565b9150611af583611646565b9250828203905081811115611b0d57611b0c611ab0565b5b92915050565b6000611b1e8261178d565b915060008203611b3157611b30611ab0565b5b600182039050919050565b7f4e487b7100000000000000000000000000000000000000000000000000000000600052603160045260246000fd5b6000611b7682611646565b9150611b8183611646565b9250828202611b8f81611646565b91508282048414831517611ba657611ba5611ab0565b5b5092915050565b6000611bb882611646565b9150611bc383611646565b925082611bd357611bd2611a21565b5b828204905092915050565b6000611be982611646565b9150611bf483611646565b9250828201905080821115611c0c57611c0b611ab0565b5b92915050565b600081549050919050565b60008190508160005260206000209050919050565b60008160001c9050919050565b600073ffffffffffffffffffffffffffffffffffffffff82169050919050565b6000611c72611c6d83611c32565b611c3f565b9050919050565b6000611c858254611c5f565b9050919050565b6000600182019050919050565b6000611ca482611c12565b611cae81856117cf565b9350611cb983611c1d565b8060005b83811015611cf157611cce82611c79565b611cd888826117ff565b9750611ce383611c8c565b925050600181019050611cbd565b5085935050505092915050565b60006020820190508181036000830152611d188184611c99565b905092915050565b7f546865206c6f747465727920697320636c6f7365640000000000000000000000600082015250565b6000611d566015836118da565b9150611d6182611d20565b602082019050919050565b60006020820190508181036000830152611d8581611d49565b9050919050565b7f54686520656e7472792066656520697320302e30303030313520657468657200600082015250565b6000611dc2601f836118da565b9150611dcd82611d8c565b602082019050919050565b60006020820190508181036000830152611df181611db5565b9050919050565b7f546865206c6f74746572792069732066756c6c00000000000000000000000000600082015250565b6000611e2e6013836118da565b9150611e3982611df8565b602082019050919050565b60006020820190508181036000830152611e5d81611e21565b9050919050565b7f596f752061726520616c72656164792061207061727469636970616e74000000600082015250565b6000611e9a601d836118da565b9150611ea582611e64565b602082019050919050565b60006020820190508181036000830152611ec981611e8d565b9050919050565b6000611edb8261178d565b915060ff8203611eee57611eed611ab0565b5b600182019050919050565b7f596f7520617265206e6f7420612077696e6e6572000000000000000000000000600082015250565b6000611f2f6014836118da565b9150611f3a82611ef9565b602082019050919050565b60006020820190508181036000830152611f5e81611f22565b9050919050565b7f596f75206861766520616c726561647920636c61696d656420796f757220707260008201527f697a650000000000000000000000000000000000000000000000000000000000602082015250565b6000611fc16023836118da565b9150611fcc82611f65565b604082019050919050565b60006020820190508181036000830152611ff081611fb4565b905091905056fea2646970667358221220214bbd5c4946706768c70207096b8b4410670cfc54177596dcb3a598b1aa395464736f6c63430008180033",
  "linkReferences": {},
  "deployedLinkReferences": {}
}