{
  "_format": "hh-sol-artifact-1",
  "contractName": "Lottery",
  "sourceName": "contracts/Lottery.sol",
  "abi": [
    {
      "inputs": [],
      "stateMutability": "nonpayable",
      "type": "constructor"
    },
    {
      "anonymous": false,
      "inputs": [
        {
          "indexed": false,
          "internalType": "address[]",
          "name": "winners",
          "type": "address[]"
        }
      ],
      "name": "LotteryEnded",
      "type": "event"
    },
    {
      "anonymous": false,
      "inputs": [],
      "name": "LotteryReset",
      "type": "event"
    },
    {
      "anonymous": false,
      "inputs": [
        {
          "indexed": false,
          "internalType": "address",
          "name": "player",
          "type": "address"
        }
      ],
      "name": "PlayerEntered",
      "type": "event"
    },
    {
      "inputs": [
        {
          "internalType": "address",
          "name": "",
          "type": "address"
        }
      ],
      "name": "balances",
      "outputs": [
        {
          "internalType": "uint256",
          "name": "",
          "type": "uint256"
        }
      ],
      "stateMutability": "view",
      "type": "function"
    },
    {
      "inputs": [],
      "name": "endLottery",
      "outputs": [],
      "stateMutability": "nonpayable",
      "type": "function"
    },
    {
      "inputs": [],
      "name": "enter",
      "outputs": [],
      "stateMutability": "payable",
      "type": "function"
    },
    {
      "inputs": [],
      "name": "entryFee",
      "outputs": [
        {
          "internalType": "uint256",
          "name": "",
          "type": "uint256"
        }
      ],
      "stateMutability": "view",
      "type": "function"
    },
    {
      "inputs": [],
      "name": "getParticipants",
      "outputs": [
        {
          "internalType": "address[]",
          "name": "",
          "type": "address[]"
        }
      ],
      "stateMutability": "view",
      "type": "function"
    },
    {
      "inputs": [
        {
          "internalType": "address",
          "name": "_address",
          "type": "address"
        }
      ],
      "name": "getPrize",
      "outputs": [
        {
          "internalType": "uint256",
          "name": "",
          "type": "uint256"
        }
      ],
      "stateMutability": "view",
      "type": "function"
    },
    {
      "inputs": [],
      "name": "getWinners",
      "outputs": [
        {
          "internalType": "address[]",
          "name": "",
          "type": "address[]"
        }
      ],
      "stateMutability": "view",
      "type": "function"
    },
    {
      "inputs": [
        {
          "internalType": "address",
          "name": "_address",
          "type": "address"
        }
      ],
      "name": "isAddressWinner",
      "outputs": [
        {
          "internalType": "bool",
          "name": "",
          "type": "bool"
        }
      ],
      "stateMutability": "view",
      "type": "function"
    },
    {
      "inputs": [
        {
          "internalType": "address",
          "name": "_address",
          "type": "address"
        }
      ],
      "name": "isAlreadyParticipating",
      "outputs": [
        {
          "internalType": "bool",
          "name": "",
          "type": "bool"
        }
      ],
      "stateMutability": "view",
      "type": "function"
    },
    {
      "inputs": [
        {
          "internalType": "address",
          "name": "",
          "type": "address"
        }
      ],
      "name": "isParticipant",
      "outputs": [
        {
          "internalType": "bool",
          "name": "",
          "type": "bool"
        }
      ],
      "stateMutability": "view",
      "type": "function"
    },
    {
      "inputs": [
        {
          "internalType": "address",
          "name": "",
          "type": "address"
        }
      ],
      "name": "isWinner",
      "outputs": [
        {
          "internalType": "bool",
          "name": "",
          "type": "bool"
        }
      ],
      "stateMutability": "view",
      "type": "function"
    },
    {
      "inputs": [],
      "name": "lotteryOpen",
      "outputs": [
        {
          "internalType": "bool",
          "name": "",
          "type": "bool"
        }
      ],
      "stateMutability": "view",
      "type": "function"
    },
    {
      "inputs": [],
      "name": "maxParticipants",
      "outputs": [
        {
          "internalType": "uint256",
          "name": "",
          "type": "uint256"
        }
      ],
      "stateMutability": "view",
      "type": "function"
    },
    {
      "inputs": [],
      "name": "minParticipants",
      "outputs": [
        {
          "internalType": "uint256",
          "name": "",
          "type": "uint256"
        }
      ],
      "stateMutability": "view",
      "type": "function"
    },
    {
      "inputs": [],
      "name": "owner",
      "outputs": [
        {
          "internalType": "address",
          "name": "",
          "type": "address"
        }
      ],
      "stateMutability": "view",
      "type": "function"
    },
    {
      "inputs": [],
      "name": "participantCount",
      "outputs": [
        {
          "internalType": "uint8",
          "name": "",
          "type": "uint8"
        }
      ],
      "stateMutability": "view",
      "type": "function"
    },
    {
      "inputs": [
        {
          "internalType": "uint256",
          "name": "",
          "type": "uint256"
        }
      ],
      "name": "participants",
      "outputs": [
        {
          "internalType": "address",
          "name": "",
          "type": "address"
        }
      ],
      "stateMutability": "view",
      "type": "function"
    },
    {
      "inputs": [],
      "name": "resetLottery",
      "outputs": [],
      "stateMutability": "nonpayable",
      "type": "function"
    },
    {
      "inputs": [],
      "name": "transferPrize",
      "outputs": [],
      "stateMutability": "nonpayable",
      "type": "function"
    },
    {
      "inputs": [],
      "name": "winnerCount",
      "outputs": [
        {
          "internalType": "uint256",
          "name": "",
          "type": "uint256"
        }
      ],
      "stateMutability": "view",
      "type": "function"
    },
    {
      "inputs": [
        {
          "internalType": "uint256",
          "name": "",
          "type": "uint256"
        }
      ],
      "name": "winners",
      "outputs": [
        {
          "internalType": "address",
          "name": "",
          "type": "address"
        }
      ],
      "stateMutability": "view",
      "type": "function"
    }
  ],
  "bytecode": "0x6080604052600a60015560056002556002600355650da475abf0006008556000600960006101000a81548160ff021916908360ff1602179055506001600960016101000a81548160ff02191690831515021790555034801561006057600080fd5b50336000806101000a81548173ffffffffffffffffffffffffffffffffffffffff021916908373ffffffffffffffffffffffffffffffffffffffff160217905550611ff6806100b06000396000f3fe60806040526004361061012a5760003560e01c80639d9ca28d116100ab578063cab38ba81161006f578063cab38ba81461040c578063d337616e14610449578063df15c37e14610460578063e97dcb621461048b578063ea8c50c614610495578063ebbf591c146104ac5761012a565b80639d9ca28d14610311578063a2fb11751461034e578063a54cd4f71461038b578063c60c4ae9146103b6578063caa02e08146103e15761012a565b806335c1d349116100f257806335c1d34914610216578063362f04c0146102535780635aa68ac01461027e5780638da5cb5b146102a9578063929066f5146102d45761012a565b8063072ea61c1461012f5780631593a8c71461015a57806324924bf71461017157806327e235e31461019c5780632d5cd1d6146101d9575b600080fd5b34801561013b57600080fd5b506101446104e9565b6040516101519190611628565b60405180910390f35b34801561016657600080fd5b5061016f6104ef565b005b34801561017d57600080fd5b50610186610ab9565b6040516101939190611628565b60405180910390f35b3480156101a857600080fd5b506101c360048036038101906101be91906116a6565b610abf565b6040516101d09190611628565b60405180910390f35b3480156101e557600080fd5b5061020060048036038101906101fb91906116a6565b610ad7565b60405161020d9190611628565b60405180910390f35b34801561022257600080fd5b5061023d600480360381019061023891906116ff565b610b20565b60405161024a919061173b565b60405180910390f35b34801561025f57600080fd5b50610268610b5f565b6040516102759190611772565b60405180910390f35b34801561028a57600080fd5b50610293610b72565b6040516102a0919061184b565b60405180910390f35b3480156102b557600080fd5b506102be610c00565b6040516102cb919061173b565b60405180910390f35b3480156102e057600080fd5b506102fb60048036038101906102f691906116a6565b610c24565b6040516103089190611888565b60405180910390f35b34801561031d57600080fd5b50610338600480360381019061033391906116a6565b610c44565b6040516103459190611888565b60405180910390f35b34801561035a57600080fd5b50610375600480360381019061037091906116ff565b610c64565b604051610382919061173b565b60405180910390f35b34801561039757600080fd5b506103a0610ca3565b6040516103ad9190611628565b60405180910390f35b3480156103c257600080fd5b506103cb610ca9565b6040516103d89190611888565b60405180910390f35b3480156103ed57600080fd5b506103f6610cbc565b6040516104039190611628565b60405180910390f35b34801561041857600080fd5b50610433600480360381019061042e91906116a6565b610cc2565b6040516104409190611888565b60405180910390f35b34801561045557600080fd5b5061045e610d18565b005b34801561046c57600080fd5b50610475611039565b604051610482919061184b565b60405180910390f35b6104936110c7565b005b3480156104a157600080fd5b506104aa6113a0565b005b3480156104b857600080fd5b506104d360048036038101906104ce91906116a6565b61157b565b6040516104e09190611888565b60405180910390f35b60085481565b600960019054906101000a900460ff1661053e576040517f08c379a000000000000000000000000000000000000000000000000000000000815260040161053590611900565b60405180910390fd5b600254600960009054906101000a900460ff1660ff161015610595576040517f08c379a000000000000000000000000000000000000000000000000000000000815260040161058c9061196c565b60405180910390fd5b60005b6003548110156108f7576000600960009054906101000a900460ff1660ff164244846040516020016105cc939291906119ad565b6040516020818303038152906040528051906020012060001c6105ef9190611a19565b905060056004828154811061060757610606611a4a565b5b9060005260206000200160009054906101000a900473ffffffffffffffffffffffffffffffffffffffff169080600181540180825580915050600190039060005260206000200160009091909190916101000a81548173ffffffffffffffffffffffffffffffffffffffff021916908373ffffffffffffffffffffffffffffffffffffffff160217905550600160076000600484815481106106ac576106ab611a4a565b5b9060005260206000200160009054906101000a900473ffffffffffffffffffffffffffffffffffffffff1673ffffffffffffffffffffffffffffffffffffffff1673ffffffffffffffffffffffffffffffffffffffff16815260200190815260200160002060006101000a81548160ff0219169083151502179055506000600660006004848154811061074257610741611a4a565b5b9060005260206000200160009054906101000a900473ffffffffffffffffffffffffffffffffffffffff1673ffffffffffffffffffffffffffffffffffffffff1673ffffffffffffffffffffffffffffffffffffffff16815260200190815260200160002060006101000a81548160ff021916908315150217905550600460016004805490506107d29190611aa8565b815481106107e3576107e2611a4a565b5b9060005260206000200160009054906101000a900473ffffffffffffffffffffffffffffffffffffffff166004828154811061082257610821611a4a565b5b9060005260206000200160006101000a81548173ffffffffffffffffffffffffffffffffffffffff021916908373ffffffffffffffffffffffffffffffffffffffff1602179055506009600081819054906101000a900460ff168092919061088990611adc565b91906101000a81548160ff021916908360ff1602179055505060048054806108b4576108b3611b05565b5b6001900381819060005260206000200160006101000a81549073ffffffffffffffffffffffffffffffffffffffff02191690559055508080600101915050610598565b5060004790506000606460508361090e9190611b34565b6109189190611b76565b90506000606460148461092b9190611b34565b6109359190611b76565b905081600a6000600560008154811061095157610950611a4a565b5b9060005260206000200160009054906101000a900473ffffffffffffffffffffffffffffffffffffffff1673ffffffffffffffffffffffffffffffffffffffff1673ffffffffffffffffffffffffffffffffffffffff16815260200190815260200160002060008282546109c59190611ba7565b9250508190555080600a600060056001815481106109e6576109e5611a4a565b5b9060005260206000200160009054906101000a900473ffffffffffffffffffffffffffffffffffffffff1673ffffffffffffffffffffffffffffffffffffffff1673ffffffffffffffffffffffffffffffffffffffff1681526020019081526020016000206000828254610a5a9190611ba7565b925050819055506000600960016101000a81548160ff0219169083151502179055507f1364a66c10650b51f40fbdd70a9c9553915721688179be49b98ae5979b8618396005604051610aac9190611cc7565b60405180910390a1505050565b60015481565b600a6020528060005260406000206000915090505481565b6000600a60008373ffffffffffffffffffffffffffffffffffffffff1673ffffffffffffffffffffffffffffffffffffffff168152602001908152602001600020549050919050565b60048181548110610b3057600080fd5b906000526020600020016000915054906101000a900473ffffffffffffffffffffffffffffffffffffffff1681565b600960009054906101000a900460ff1681565b60606004805480602002602001604051908101604052809291908181526020018280548015610bf657602002820191906000526020600020905b8160009054906101000a900473ffffffffffffffffffffffffffffffffffffffff1673ffffffffffffffffffffffffffffffffffffffff1681526020019060010190808311610bac575b5050505050905090565b60008054906101000a900473ffffffffffffffffffffffffffffffffffffffff1681565b60066020528060005260406000206000915054906101000a900460ff1681565b60076020528060005260406000206000915054906101000a900460ff1681565b60058181548110610c7457600080fd5b906000526020600020016000915054906101000a900473ffffffffffffffffffffffffffffffffffffffff1681565b60025481565b600960019054906101000a900460ff1681565b60035481565b6000600760008373ffffffffffffffffffffffffffffffffffffffff1673ffffffffffffffffffffffffffffffffffffffff16815260200190815260200160002060009054906101000a900460ff169050919050565b60005b600960009054906101000a900460ff1660ff16811015610dd85760006006600060048481548110610d4f57610d4e611a4a565b5b9060005260206000200160009054906101000a900473ffffffffffffffffffffffffffffffffffffffff1673ffffffffffffffffffffffffffffffffffffffff1673ffffffffffffffffffffffffffffffffffffffff16815260200190815260200160002060006101000a81548160ff0219169083151502179055508080600101915050610d1b565b50600960019054906101000a900460ff16610fb85760005b600354811015610fb65760006007600060058481548110610e1457610e13611a4a565b5b9060005260206000200160009054906101000a900473ffffffffffffffffffffffffffffffffffffffff1673ffffffffffffffffffffffffffffffffffffffff1673ffffffffffffffffffffffffffffffffffffffff16815260200190815260200160002060006101000a81548160ff02191690831515021790555060006006600060058481548110610eaa57610ea9611a4a565b5b9060005260206000200160009054906101000a900473ffffffffffffffffffffffffffffffffffffffff1673ffffffffffffffffffffffffffffffffffffffff1673ffffffffffffffffffffffffffffffffffffffff16815260200190815260200160002060006101000a81548160ff0219169083151502179055506000600a600060058481548110610f4057610f3f611a4a565b5b9060005260206000200160009054906101000a900473ffffffffffffffffffffffffffffffffffffffff1673ffffffffffffffffffffffffffffffffffffffff1673ffffffffffffffffffffffffffffffffffffffff168152602001908152602001600020819055508080600101915050610df0565b505b60046000610fc691906115d1565b60056000610fd491906115d1565b6000600960006101000a81548160ff021916908360ff1602179055506001600960016101000a81548160ff0219169083151502179055507fc07cdc0437f4a5523d938e3a96f2e751ce4a8e8784c5ce2316c7f833ac26772060405160405180910390a1565b606060058054806020026020016040519081016040528092919081815260200182805480156110bd57602002820191906000526020600020905b8160009054906101000a900473ffffffffffffffffffffffffffffffffffffffff1673ffffffffffffffffffffffffffffffffffffffff1681526020019060010190808311611073575b5050505050905090565b600960019054906101000a900460ff16611116576040517f08c379a000000000000000000000000000000000000000000000000000000000815260040161110d90611d35565b60405180910390fd5b600854341461115a576040517f08c379a000000000000000000000000000000000000000000000000000000000815260040161115190611da1565b60405180910390fd5b600154600960009054906101000a900460ff1660ff16106111b0576040517f08c379a00000000000000000000000000000000000000000000000000000000081526004016111a790611e0d565b60405180910390fd5b600660003373ffffffffffffffffffffffffffffffffffffffff1673ffffffffffffffffffffffffffffffffffffffff16815260200190815260200160002060009054906101000a900460ff161561123d576040517f08c379a000000000000000000000000000000000000000000000000000000000815260040161123490611e79565b60405180910390fd5b6004339080600181540180825580915050600190039060005260206000200160009091909190916101000a81548173ffffffffffffffffffffffffffffffffffffffff021916908373ffffffffffffffffffffffffffffffffffffffff1602179055506009600081819054906101000a900460ff16809291906112bf90611e99565b91906101000a81548160ff021916908360ff160217905550506001600660003373ffffffffffffffffffffffffffffffffffffffff1673ffffffffffffffffffffffffffffffffffffffff16815260200190815260200160002060006101000a81548160ff021916908315150217905550600154600960009054906101000a900460ff1660ff1603611367576000600960016101000a81548160ff0219169083151502179055505b7f4d999952f9aa655a216ee2df5968ca0e670e9582ddc96cfe7d8168114b8ca37f33604051611396919061173b565b60405180910390a1565b600760003373ffffffffffffffffffffffffffffffffffffffff1673ffffffffffffffffffffffffffffffffffffffff16815260200190815260200160002060009054906101000a900460ff1661142c576040517f08c379a000000000000000000000000000000000000000000000000000000000815260040161142390611f0e565b60405180910390fd5b6000600a60003373ffffffffffffffffffffffffffffffffffffffff1673ffffffffffffffffffffffffffffffffffffffff16815260200190815260200160002054116114ae576040517f08c379a00000000000000000000000000000000000000000000000000000000081526004016114a590611fa0565b60405180910390fd5b3373ffffffffffffffffffffffffffffffffffffffff166108fc600a60003373ffffffffffffffffffffffffffffffffffffffff1673ffffffffffffffffffffffffffffffffffffffff168152602001908152602001600020549081150290604051600060405180830381858888f19350505050158015611533573d6000803e3d6000fd5b506000600a60003373ffffffffffffffffffffffffffffffffffffffff1673ffffffffffffffffffffffffffffffffffffffff16815260200190815260200160002081905550565b6000600660008373ffffffffffffffffffffffffffffffffffffffff1673ffffffffffffffffffffffffffffffffffffffff16815260200190815260200160002060009054906101000a900460ff169050919050565b50805460008255906000526020600020908101906115ef91906115f2565b50565b5b8082111561160b5760008160009055506001016115f3565b5090565b6000819050919050565b6116228161160f565b82525050565b600060208201905061163d6000830184611619565b92915050565b600080fd5b600073ffffffffffffffffffffffffffffffffffffffff82169050919050565b600061167382611648565b9050919050565b61168381611668565b811461168e57600080fd5b50565b6000813590506116a08161167a565b92915050565b6000602082840312156116bc576116bb611643565b5b60006116ca84828501611691565b91505092915050565b6116dc8161160f565b81146116e757600080fd5b50565b6000813590506116f9816116d3565b92915050565b60006020828403121561171557611714611643565b5b6000611723848285016116ea565b91505092915050565b61173581611668565b82525050565b6000602082019050611750600083018461172c565b92915050565b600060ff82169050919050565b61176c81611756565b82525050565b60006020820190506117876000830184611763565b92915050565b600081519050919050565b600082825260208201905092915050565b6000819050602082019050919050565b6117c281611668565b82525050565b60006117d483836117b9565b60208301905092915050565b6000602082019050919050565b60006117f88261178d565b6118028185611798565b935061180d836117a9565b8060005b8381101561183e57815161182588826117c8565b9750611830836117e0565b925050600181019050611811565b5085935050505092915050565b6000602082019050818103600083015261186581846117ed565b905092915050565b60008115159050919050565b6118828161186d565b82525050565b600060208201905061189d6000830184611879565b92915050565b600082825260208201905092915050565b7f546865206c6f747465727920697320616c726561647920636c6f736564000000600082015250565b60006118ea601d836118a3565b91506118f5826118b4565b602082019050919050565b60006020820190508181036000830152611919816118dd565b9050919050565b7f546865206c6f7474657279206973206e6f742066756c6c000000000000000000600082015250565b60006119566017836118a3565b915061196182611920565b602082019050919050565b6000602082019050818103600083015261198581611949565b9050919050565b6000819050919050565b6119a76119a28261160f565b61198c565b82525050565b60006119b98286611996565b6020820191506119c98285611996565b6020820191506119d98284611996565b602082019150819050949350505050565b7f4e487b7100000000000000000000000000000000000000000000000000000000600052601260045260246000fd5b6000611a248261160f565b9150611a2f8361160f565b925082611a3f57611a3e6119ea565b5b828206905092915050565b7f4e487b7100000000000000000000000000000000000000000000000000000000600052603260045260246000fd5b7f4e487b7100000000000000000000000000000000000000000000000000000000600052601160045260246000fd5b6000611ab38261160f565b9150611abe8361160f565b9250828203905081811115611ad657611ad5611a79565b5b92915050565b6000611ae782611756565b915060008203611afa57611af9611a79565b5b600182039050919050565b7f4e487b7100000000000000000000000000000000000000000000000000000000600052603160045260246000fd5b6000611b3f8261160f565b9150611b4a8361160f565b9250828202611b588161160f565b91508282048414831517611b6f57611b6e611a79565b5b5092915050565b6000611b818261160f565b9150611b8c8361160f565b925082611b9c57611b9b6119ea565b5b828204905092915050565b6000611bb28261160f565b9150611bbd8361160f565b9250828201905080821115611bd557611bd4611a79565b5b92915050565b600081549050919050565b60008190508160005260206000209050919050565b60008160001c9050919050565b600073ffffffffffffffffffffffffffffffffffffffff82169050919050565b6000611c3b611c3683611bfb565b611c08565b9050919050565b6000611c4e8254611c28565b9050919050565b6000600182019050919050565b6000611c6d82611bdb565b611c778185611798565b9350611c8283611be6565b8060005b83811015611cba57611c9782611c42565b611ca188826117c8565b9750611cac83611c55565b925050600181019050611c86565b5085935050505092915050565b60006020820190508181036000830152611ce18184611c62565b905092915050565b7f546865206c6f747465727920697320636c6f7365640000000000000000000000600082015250565b6000611d1f6015836118a3565b9150611d2a82611ce9565b602082019050919050565b60006020820190508181036000830152611d4e81611d12565b9050919050565b7f54686520656e7472792066656520697320302e30303030313520657468657200600082015250565b6000611d8b601f836118a3565b9150611d9682611d55565b602082019050919050565b60006020820190508181036000830152611dba81611d7e565b9050919050565b7f546865206c6f74746572792069732066756c6c00000000000000000000000000600082015250565b6000611df76013836118a3565b9150611e0282611dc1565b602082019050919050565b60006020820190508181036000830152611e2681611dea565b9050919050565b7f596f752061726520616c72656164792061207061727469636970616e74000000600082015250565b6000611e63601d836118a3565b9150611e6e82611e2d565b602082019050919050565b60006020820190508181036000830152611e9281611e56565b9050919050565b6000611ea482611756565b915060ff8203611eb757611eb6611a79565b5b600182019050919050565b7f596f7520617265206e6f7420612077696e6e6572000000000000000000000000600082015250565b6000611ef86014836118a3565b9150611f0382611ec2565b602082019050919050565b60006020820190508181036000830152611f2781611eeb565b9050919050565b7f596f75206861766520616c726561647920636c61696d656420796f757220707260008201527f697a650000000000000000000000000000000000000000000000000000000000602082015250565b6000611f8a6023836118a3565b9150611f9582611f2e565b604082019050919050565b60006020820190508181036000830152611fb981611f7d565b905091905056fea2646970667358221220e3c6c8f34ef243340c52a351daa911c50ea596a505e6758df4d9c1c51737d5c764736f6c63430008180033",
  "linkReferences": {},
  "deployedLinkReferences": {}
}